{
  "contractName": "Consortium",
  "abi": [
    {
      "constant": true,
      "inputs": [
        {
          "name": "",
          "type": "address"
        }
      ],
      "name": "airlines_map",
      "outputs": [
        {
          "name": "airline",
          "type": "uint256"
        }
      ],
      "payable": false,
      "stateMutability": "view",
      "type": "function",
      "signature": "0x07749612"
    },
    {
      "inputs": [],
      "payable": false,
      "stateMutability": "nonpayable",
      "type": "constructor",
      "signature": "constructor"
    },
    {
      "constant": false,
      "inputs": [
        {
          "name": "_user",
          "type": "address"
        },
        {
          "name": "airline_id",
          "type": "uint256"
        }
      ],
      "name": "register",
      "outputs": [],
      "payable": false,
      "stateMutability": "nonpayable",
      "type": "function",
      "signature": "0x6d705ebb"
    },
    {
      "constant": false,
      "inputs": [
        {
          "name": "_user",
          "type": "address"
        }
      ],
      "name": "unregister",
      "outputs": [],
      "payable": false,
      "stateMutability": "nonpayable",
      "type": "function",
      "signature": "0x2ec2c246"
    },
    {
      "constant": false,
      "inputs": [
        {
          "name": "airline_requested",
          "type": "uint256"
        }
      ],
      "name": "response",
      "outputs": [],
      "payable": false,
      "stateMutability": "nonpayable",
      "type": "function",
      "signature": "0x50fb28da"
    }
  ],
  "bytecode": "0x608060405234801561001057600080fd5b50336000806101000a81548173ffffffffffffffffffffffffffffffffffffffff021916908373ffffffffffffffffffffffffffffffffffffffff16021790555061008c6000809054906101000a900473ffffffffffffffffffffffffffffffffffffffff166001610091640100000000026401000000009004565b6100dc565b80600160008473ffffffffffffffffffffffffffffffffffffffff1673ffffffffffffffffffffffffffffffffffffffff168152602001908152602001600020600001819055505050565b610339806100eb6000396000f3fe608060405260043610610062576000357c0100000000000000000000000000000000000000000000000000000000900463ffffffff16806307749612146100675780632ec2c246146100cc57806350fb28da1461011d5780636d705ebb14610158575b600080fd5b34801561007357600080fd5b506100b66004803603602081101561008a57600080fd5b81019080803573ffffffffffffffffffffffffffffffffffffffff1690602001909291905050506101b3565b6040518082815260200191505060405180910390f35b3480156100d857600080fd5b5061011b600480360360208110156100ef57600080fd5b81019080803573ffffffffffffffffffffffffffffffffffffffff1690602001909291905050506101d1565b005b34801561012957600080fd5b506101566004803603602081101561014057600080fd5b810190808035906020019092919050505061021c565b005b34801561016457600080fd5b506101b16004803603604081101561017b57600080fd5b81019080803573ffffffffffffffffffffffffffffffffffffffff16906020019092919080359060200190929190505050610278565b005b60016020528060005260406000206000915090508060000154905081565b6000600160008373ffffffffffffffffffffffffffffffffffffffff1673ffffffffffffffffffffffffffffffffffffffff1681526020019081526020016000206000018190555050565b80600160003373ffffffffffffffffffffffffffffffffffffffff1673ffffffffffffffffffffffffffffffffffffffff16815260200190815260200160002060000154141561026b57610275565b610274816102c3565b5b50565b80600160008473ffffffffffffffffffffffffffffffffffffffff1673ffffffffffffffffffffffffffffffffffffffff168152602001908152602001600020600001819055505050565b80600160003373ffffffffffffffffffffffffffffffffffffffff1673ffffffffffffffffffffffffffffffffffffffff168152602001908152602001600020600001819055505056fea165627a7a72305820885ceee940cca13340d294b8f0113a157a6bb01e9cbac447dd32635df877251d0029",
  "source": "pragma solidity ^0.5.0;\n\ncontract Consortium {\n\n    address chairperson;\n\n    struct user {\n        uint airline;\n    }\n\n    mapping (address => user) public airlines_map;\n\n    constructor () public {\n        chairperson = msg.sender;\n        register(chairperson, 1);\n    }\n\n    function register(address _user, uint airline_id) public {\n        airlines_map[_user].airline = airline_id;\n    }\n\n    function unregister(address _user) public {\n        airlines_map[_user].airline = 0;\n    }\n\n    function settle_payment(uint airline_id) private {\n        airlines_map[msg.sender].airline = airline_id;\n     }\n\n     // Airlines response to user's request by doing validation and settle payment if it's good\n     function response(uint airline_requested) public {\n        //require(airline_requested > 0);\n        if (airlines_map[msg.sender].airline == airline_requested) return;\n        else { settle_payment(airline_requested); }\n     }\n}\n",
  "sourcePath": "/Users/tau/Desktop/GitHub/CSE410-Airline-Consortium/ballot-contract/contracts/Airline.sol",
  "compiler": {
    "name": "solc",
    "version": "0.5.0+commit.1d4f565a.Emscripten.clang"
  },
  "schemaVersion": "3.0.2",
  "updatedAt": "2019-04-30T17:58:59.639Z",
  "devdoc": {
    "methods": {}
  },
  "userdoc": {
    "methods": {}
  }
}