{
  "contractName": "Consortium",
  "abi": [
    {
      "constant": true,
      "inputs": [
        {
          "name": "",
          "type": "address"
        }
      ],
      "name": "airlines_map",
      "outputs": [
        {
          "name": "airline",
          "type": "uint256"
        }
      ],
      "payable": false,
      "stateMutability": "view",
      "type": "function",
      "signature": "0x07749612"
    },
    {
      "inputs": [],
      "payable": false,
      "stateMutability": "nonpayable",
      "type": "constructor",
      "signature": "constructor"
    },
    {
      "constant": false,
      "inputs": [
        {
          "name": "user",
          "type": "address"
        }
      ],
      "name": "register",
      "outputs": [],
      "payable": false,
      "stateMutability": "nonpayable",
      "type": "function",
      "signature": "0x4420e486"
    },
    {
      "constant": false,
      "inputs": [
        {
          "name": "user",
          "type": "address"
        }
      ],
      "name": "unregister",
      "outputs": [],
      "payable": false,
      "stateMutability": "nonpayable",
      "type": "function",
      "signature": "0x2ec2c246"
    },
    {
      "constant": false,
      "inputs": [
        {
          "name": "airline_requested",
          "type": "uint256"
        }
      ],
      "name": "response",
      "outputs": [],
      "payable": false,
      "stateMutability": "nonpayable",
      "type": "function",
      "signature": "0x50fb28da"
    }
  ],
  "bytecode": "0x608060405234801561001057600080fd5b50336000806101000a81548173ffffffffffffffffffffffffffffffffffffffff021916908373ffffffffffffffffffffffffffffffffffffffff16021790555061008a6000809054906101000a900473ffffffffffffffffffffffffffffffffffffffff1661008f640100000000026401000000009004565b6100d9565b60018060008373ffffffffffffffffffffffffffffffffffffffff1673ffffffffffffffffffffffffffffffffffffffff1681526020019081526020016000206000018190555050565b61032e806100e86000396000f3fe608060405260043610610062576000357c0100000000000000000000000000000000000000000000000000000000900463ffffffff16806307749612146100675780632ec2c246146100cc5780634420e4861461011d57806350fb28da1461016e575b600080fd5b34801561007357600080fd5b506100b66004803603602081101561008a57600080fd5b81019080803573ffffffffffffffffffffffffffffffffffffffff1690602001909291905050506101a9565b6040518082815260200191505060405180910390f35b3480156100d857600080fd5b5061011b600480360360208110156100ef57600080fd5b81019080803573ffffffffffffffffffffffffffffffffffffffff1690602001909291905050506101c7565b005b34801561012957600080fd5b5061016c6004803603602081101561014057600080fd5b81019080803573ffffffffffffffffffffffffffffffffffffffff169060200190929190505050610212565b005b34801561017a57600080fd5b506101a76004803603602081101561019157600080fd5b810190808035906020019092919050505061025c565b005b60016020528060005260406000206000915090508060000154905081565b6000600160008373ffffffffffffffffffffffffffffffffffffffff1673ffffffffffffffffffffffffffffffffffffffff1681526020019081526020016000206000018190555050565b60018060008373ffffffffffffffffffffffffffffffffffffffff1673ffffffffffffffffffffffffffffffffffffffff1681526020019081526020016000206000018190555050565b80600160003373ffffffffffffffffffffffffffffffffffffffff1673ffffffffffffffffffffffffffffffffffffffff1681526020019081526020016000206000015414156102ab576102b5565b6102b4816102b8565b5b50565b80600160003373ffffffffffffffffffffffffffffffffffffffff1673ffffffffffffffffffffffffffffffffffffffff168152602001908152602001600020600001819055505056fea165627a7a723058207d773ed6074b7df9a1e3eb7c2d8f2b227b9d093e07937200a760474ebf08e8c00029",
  "source": "pragma solidity ^0.5.0;\n\ncontract Consortium {\n\n    address chairperson;\n\n    struct user {\n        uint airline;\n    }\n\n    mapping (address => user) public airlines_map;\n\n    constructor () public {\n        chairperson = msg.sender;\n        register(chairperson);\n    }\n\n    function register(address user) public {\n        airlines_map[user].airline = 1;\n    }\n\n    function unregister(address user) public {\n        airlines_map[user].airline = 0;\n    }\n\n    function settle_payment(uint airline_id) private {\n        airlines_map[msg.sender].airline = airline_id;\n     }\n\n     // Airlines response to user's request by doing validation and settle payment if it's good\n     function response(uint airline_requested) public {\n        if (airlines_map[msg.sender].airline == airline_requested) return;\n        settle_payment(airline_requested);\n     }\n}\n",
  "sourcePath": "/Users/tau/Desktop/GitHub/CSE410-Airline-Consortium/ballot-contract/contracts/Airline.sol",
  "compiler": {
    "name": "solc",
    "version": "0.5.0+commit.1d4f565a.Emscripten.clang"
  },
  "schemaVersion": "3.0.2",
  "updatedAt": "2019-04-29T03:06:06.595Z",
  "devdoc": {
    "methods": {}
  },
  "userdoc": {
    "methods": {}
  }
}